{
  "_format": "hh-sol-artifact-1",
  "contractName": "User",
  "sourceName": "contracts/contract.sol",
  "abi": [
    {
      "anonymous": false,
      "inputs": [
        {
          "indexed": true,
          "internalType": "address",
          "name": "previousOwner",
          "type": "address"
        },
        {
          "indexed": true,
          "internalType": "address",
          "name": "newOwner",
          "type": "address"
        }
      ],
      "name": "OwnershipTransferred",
      "type": "event"
    },
    {
      "inputs": [
        {
          "internalType": "address",
          "name": "",
          "type": "address"
        }
      ],
      "name": "Users",
      "outputs": [
        {
          "internalType": "uint256",
          "name": "",
          "type": "uint256"
        }
      ],
      "stateMutability": "view",
      "type": "function"
    },
    {
      "inputs": [],
      "name": "owner",
      "outputs": [
        {
          "internalType": "address",
          "name": "",
          "type": "address"
        }
      ],
      "stateMutability": "view",
      "type": "function"
    },
    {
      "inputs": [],
      "name": "renounceOwnership",
      "outputs": [],
      "stateMutability": "nonpayable",
      "type": "function"
    },
    {
      "inputs": [
        {
          "internalType": "address",
          "name": "user",
          "type": "address"
        }
      ],
      "name": "showTokenId",
      "outputs": [
        {
          "internalType": "uint256",
          "name": "",
          "type": "uint256"
        }
      ],
      "stateMutability": "view",
      "type": "function"
    },
    {
      "inputs": [
        {
          "internalType": "address",
          "name": "newOwner",
          "type": "address"
        }
      ],
      "name": "transferOwnership",
      "outputs": [],
      "stateMutability": "nonpayable",
      "type": "function"
    },
    {
      "inputs": [
        {
          "internalType": "address",
          "name": "user",
          "type": "address"
        },
        {
          "internalType": "uint256",
          "name": "tokenid",
          "type": "uint256"
        }
      ],
      "name": "update",
      "outputs": [],
      "stateMutability": "nonpayable",
      "type": "function"
    }
  ],
  "bytecode": "0x608060405234801561001057600080fd5b5061002d61002261003260201b60201c565b61003a60201b60201c565b6100fe565b600033905090565b60008060009054906101000a900473ffffffffffffffffffffffffffffffffffffffff169050816000806101000a81548173ffffffffffffffffffffffffffffffffffffffff021916908373ffffffffffffffffffffffffffffffffffffffff1602179055508173ffffffffffffffffffffffffffffffffffffffff168173ffffffffffffffffffffffffffffffffffffffff167f8be0079c531659141344cd1fd0a4f28419497f9722a3daafe3b4186f6b6457e060405160405180910390a35050565b61067d8061010d6000396000f3fe608060405234801561001057600080fd5b50600436106100625760003560e01c80633fcf9eab14610067578063715018a6146100975780638da5cb5b146100a157806399b956a0146100bf578063a2d83b5e146100ef578063f2fde38b1461010b575b600080fd5b610081600480360381019061007c9190610415565b610127565b60405161008e9190610539565b60405180910390f35b61009f610178565b005b6100a961018c565b6040516100b691906104de565b60405180910390f35b6100d960048036038101906100d49190610415565b6101b5565b6040516100e69190610539565b60405180910390f35b6101096004803603810190610104919061043e565b6101cd565b005b61012560048036038101906101209190610415565b61021d565b005b60006101316102a1565b600160008373ffffffffffffffffffffffffffffffffffffffff1673ffffffffffffffffffffffffffffffffffffffff168152602001908152602001600020549050919050565b6101806102a1565b61018a600061031f565b565b60008060009054906101000a900473ffffffffffffffffffffffffffffffffffffffff16905090565b60016020528060005260406000206000915090505481565b6101d56102a1565b80600160008473ffffffffffffffffffffffffffffffffffffffff1673ffffffffffffffffffffffffffffffffffffffff168152602001908152602001600020819055505050565b6102256102a1565b600073ffffffffffffffffffffffffffffffffffffffff168173ffffffffffffffffffffffffffffffffffffffff161415610295576040517f08c379a000000000000000000000000000000000000000000000000000000000815260040161028c906104f9565b60405180910390fd5b61029e8161031f565b50565b6102a96103e3565b73ffffffffffffffffffffffffffffffffffffffff166102c761018c565b73ffffffffffffffffffffffffffffffffffffffff161461031d576040517f08c379a000000000000000000000000000000000000000000000000000000000815260040161031490610519565b60405180910390fd5b565b60008060009054906101000a900473ffffffffffffffffffffffffffffffffffffffff169050816000806101000a81548173ffffffffffffffffffffffffffffffffffffffff021916908373ffffffffffffffffffffffffffffffffffffffff1602179055508173ffffffffffffffffffffffffffffffffffffffff168173ffffffffffffffffffffffffffffffffffffffff167f8be0079c531659141344cd1fd0a4f28419497f9722a3daafe3b4186f6b6457e060405160405180910390a35050565b600033905090565b6000813590506103fa81610619565b92915050565b60008135905061040f81610630565b92915050565b60006020828403121561042757600080fd5b6000610435848285016103eb565b91505092915050565b6000806040838503121561045157600080fd5b600061045f858286016103eb565b925050602061047085828601610400565b9150509250929050565b61048381610565565b82525050565b6000610496602683610554565b91506104a1826105a1565b604082019050919050565b60006104b9602083610554565b91506104c4826105f0565b602082019050919050565b6104d881610597565b82525050565b60006020820190506104f3600083018461047a565b92915050565b6000602082019050818103600083015261051281610489565b9050919050565b60006020820190508181036000830152610532816104ac565b9050919050565b600060208201905061054e60008301846104cf565b92915050565b600082825260208201905092915050565b600061057082610577565b9050919050565b600073ffffffffffffffffffffffffffffffffffffffff82169050919050565b6000819050919050565b7f4f776e61626c653a206e6577206f776e657220697320746865207a65726f206160008201527f6464726573730000000000000000000000000000000000000000000000000000602082015250565b7f4f776e61626c653a2063616c6c6572206973206e6f7420746865206f776e6572600082015250565b61062281610565565b811461062d57600080fd5b50565b61063981610597565b811461064457600080fd5b5056fea2646970667358221220afbe599284a780e83f5b7c9c4bbeb1dace714e83bdcc159b27a3718fda73c1c164736f6c63430008040033",
  "linkReferences": {},
  "deployedLinkReferences": {}
}