{
  "_format": "hh-sol-artifact-1",
  "contractName": "Contract",
  "sourceName": "contracts/contract.sol",
  "abi": [
    {
      "inputs": [],
      "stateMutability": "nonpayable",
      "type": "constructor"
    },
    {
      "anonymous": false,
      "inputs": [
        {
          "indexed": true,
          "internalType": "address",
          "name": "owner",
          "type": "address"
        },
        {
          "indexed": true,
          "internalType": "address",
          "name": "approved",
          "type": "address"
        },
        {
          "indexed": true,
          "internalType": "uint256",
          "name": "tokenId",
          "type": "uint256"
        }
      ],
      "name": "Approval",
      "type": "event"
    },
    {
      "anonymous": false,
      "inputs": [
        {
          "indexed": true,
          "internalType": "address",
          "name": "owner",
          "type": "address"
        },
        {
          "indexed": true,
          "internalType": "address",
          "name": "operator",
          "type": "address"
        },
        {
          "indexed": false,
          "internalType": "bool",
          "name": "approved",
          "type": "bool"
        }
      ],
      "name": "ApprovalForAll",
      "type": "event"
    },
    {
      "anonymous": false,
      "inputs": [
        {
          "indexed": true,
          "internalType": "address",
          "name": "previousOwner",
          "type": "address"
        },
        {
          "indexed": true,
          "internalType": "address",
          "name": "newOwner",
          "type": "address"
        }
      ],
      "name": "OwnershipTransferred",
      "type": "event"
    },
    {
      "anonymous": false,
      "inputs": [
        {
          "indexed": true,
          "internalType": "address",
          "name": "from",
          "type": "address"
        },
        {
          "indexed": true,
          "internalType": "address",
          "name": "to",
          "type": "address"
        },
        {
          "indexed": true,
          "internalType": "uint256",
          "name": "tokenId",
          "type": "uint256"
        }
      ],
      "name": "Transfer",
      "type": "event"
    },
    {
      "inputs": [
        {
          "internalType": "address",
          "name": "to",
          "type": "address"
        },
        {
          "internalType": "uint256",
          "name": "tokenId",
          "type": "uint256"
        }
      ],
      "name": "approve",
      "outputs": [],
      "stateMutability": "nonpayable",
      "type": "function"
    },
    {
      "inputs": [
        {
          "internalType": "address",
          "name": "owner",
          "type": "address"
        }
      ],
      "name": "balanceOf",
      "outputs": [
        {
          "internalType": "uint256",
          "name": "",
          "type": "uint256"
        }
      ],
      "stateMutability": "view",
      "type": "function"
    },
    {
      "inputs": [
        {
          "internalType": "uint256",
          "name": "tokenId",
          "type": "uint256"
        }
      ],
      "name": "getApproved",
      "outputs": [
        {
          "internalType": "address",
          "name": "",
          "type": "address"
        }
      ],
      "stateMutability": "view",
      "type": "function"
    },
    {
      "inputs": [
        {
          "internalType": "address",
          "name": "owner",
          "type": "address"
        },
        {
          "internalType": "address",
          "name": "operator",
          "type": "address"
        }
      ],
      "name": "isApprovedForAll",
      "outputs": [
        {
          "internalType": "bool",
          "name": "",
          "type": "bool"
        }
      ],
      "stateMutability": "view",
      "type": "function"
    },
    {
      "inputs": [
        {
          "internalType": "address",
          "name": "recipient",
          "type": "address"
        },
        {
          "internalType": "string",
          "name": "_tokenURI",
          "type": "string"
        }
      ],
      "name": "mintNFT",
      "outputs": [
        {
          "internalType": "uint256",
          "name": "",
          "type": "uint256"
        }
      ],
      "stateMutability": "nonpayable",
      "type": "function"
    },
    {
      "inputs": [],
      "name": "name",
      "outputs": [
        {
          "internalType": "string",
          "name": "",
          "type": "string"
        }
      ],
      "stateMutability": "view",
      "type": "function"
    },
    {
      "inputs": [],
      "name": "owner",
      "outputs": [
        {
          "internalType": "address",
          "name": "",
          "type": "address"
        }
      ],
      "stateMutability": "view",
      "type": "function"
    },
    {
      "inputs": [
        {
          "internalType": "uint256",
          "name": "tokenId",
          "type": "uint256"
        }
      ],
      "name": "ownerOf",
      "outputs": [
        {
          "internalType": "address",
          "name": "",
          "type": "address"
        }
      ],
      "stateMutability": "view",
      "type": "function"
    },
    {
      "inputs": [],
      "name": "renounceOwnership",
      "outputs": [],
      "stateMutability": "nonpayable",
      "type": "function"
    },
    {
      "inputs": [
        {
          "internalType": "address",
          "name": "from",
          "type": "address"
        },
        {
          "internalType": "address",
          "name": "to",
          "type": "address"
        },
        {
          "internalType": "uint256",
          "name": "tokenId",
          "type": "uint256"
        }
      ],
      "name": "safeTransferFrom",
      "outputs": [],
      "stateMutability": "nonpayable",
      "type": "function"
    },
    {
      "inputs": [
        {
          "internalType": "address",
          "name": "from",
          "type": "address"
        },
        {
          "internalType": "address",
          "name": "to",
          "type": "address"
        },
        {
          "internalType": "uint256",
          "name": "tokenId",
          "type": "uint256"
        },
        {
          "internalType": "bytes",
          "name": "data",
          "type": "bytes"
        }
      ],
      "name": "safeTransferFrom",
      "outputs": [],
      "stateMutability": "nonpayable",
      "type": "function"
    },
    {
      "inputs": [
        {
          "internalType": "address",
          "name": "operator",
          "type": "address"
        },
        {
          "internalType": "bool",
          "name": "approved",
          "type": "bool"
        }
      ],
      "name": "setApprovalForAll",
      "outputs": [],
      "stateMutability": "nonpayable",
      "type": "function"
    },
    {
      "inputs": [
        {
          "internalType": "string",
          "name": "baseURI_",
          "type": "string"
        }
      ],
      "name": "setBaseURI",
      "outputs": [],
      "stateMutability": "nonpayable",
      "type": "function"
    },
    {
      "inputs": [
        {
          "internalType": "bytes4",
          "name": "interfaceId",
          "type": "bytes4"
        }
      ],
      "name": "supportsInterface",
      "outputs": [
        {
          "internalType": "bool",
          "name": "",
          "type": "bool"
        }
      ],
      "stateMutability": "view",
      "type": "function"
    },
    {
      "inputs": [],
      "name": "symbol",
      "outputs": [
        {
          "internalType": "string",
          "name": "",
          "type": "string"
        }
      ],
      "stateMutability": "view",
      "type": "function"
    },
    {
      "inputs": [
        {
          "internalType": "uint256",
          "name": "tokenId",
          "type": "uint256"
        }
      ],
      "name": "tokenURI",
      "outputs": [
        {
          "internalType": "string",
          "name": "",
          "type": "string"
        }
      ],
      "stateMutability": "view",
      "type": "function"
    },
    {
      "inputs": [
        {
          "internalType": "address",
          "name": "from",
          "type": "address"
        },
        {
          "internalType": "address",
          "name": "to",
          "type": "address"
        },
        {
          "internalType": "uint256",
          "name": "tokenId",
          "type": "uint256"
        }
      ],
      "name": "transferFrom",
      "outputs": [],
      "stateMutability": "nonpayable",
      "type": "function"
    },
    {
      "inputs": [
        {
          "internalType": "address",
          "name": "newOwner",
          "type": "address"
        }
      ],
      "name": "transferOwnership",
      "outputs": [],
      "stateMutability": "nonpayable",
      "type": "function"
    }
  ],
  "bytecode": "0x60806040523480156200001157600080fd5b506040518060400160405280600581526020017f4b4f4e4d410000000000000000000000000000000000000000000000000000008152506040518060400160405280600481526020017f504f415000000000000000000000000000000000000000000000000000000000815250816000908051906020019062000096929190620001a6565b508060019080519060200190620000af929190620001a6565b505050620000d2620000c6620000d860201b60201c565b620000e060201b60201c565b620002bb565b600033905090565b6000600660009054906101000a900473ffffffffffffffffffffffffffffffffffffffff16905081600660006101000a81548173ffffffffffffffffffffffffffffffffffffffff021916908373ffffffffffffffffffffffffffffffffffffffff1602179055508173ffffffffffffffffffffffffffffffffffffffff168173ffffffffffffffffffffffffffffffffffffffff167f8be0079c531659141344cd1fd0a4f28419497f9722a3daafe3b4186f6b6457e060405160405180910390a35050565b828054620001b49062000256565b90600052602060002090601f016020900481019282620001d8576000855562000224565b82601f10620001f357805160ff191683800117855562000224565b8280016001018555821562000224579182015b828111156200022357825182559160200191906001019062000206565b5b50905062000233919062000237565b5090565b5b808211156200025257600081600090555060010162000238565b5090565b600060028204905060018216806200026f57607f821691505b602082108114156200028657620002856200028c565b5b50919050565b7f4e487b7100000000000000000000000000000000000000000000000000000000600052602260045260246000fd5b612d7180620002cb6000396000f3fe608060405234801561001057600080fd5b50600436106101165760003560e01c8063715018a6116100a2578063b88d4fde11610071578063b88d4fde146102cb578063c87b56dd146102e7578063e985e9c514610317578063eacabe1414610347578063f2fde38b1461037757610116565b8063715018a6146102695780638da5cb5b1461027357806395d89b4114610291578063a22cb465146102af57610116565b806323b872dd116100e957806323b872dd146101b557806342842e0e146101d157806355f804b3146101ed5780636352211e1461020957806370a082311461023957610116565b806301ffc9a71461011b57806306fdde031461014b578063081812fc14610169578063095ea7b314610199575b600080fd5b61013560048036038101906101309190611ebb565b610393565b60405161014291906122df565b60405180910390f35b610153610475565b60405161016091906122fa565b60405180910390f35b610183600480360381019061017e9190611f4e565b610507565b6040516101909190612278565b60405180910390f35b6101b360048036038101906101ae9190611e7f565b61054d565b005b6101cf60048036038101906101ca9190611d25565b610665565b005b6101eb60048036038101906101e69190611d25565b6106c5565b005b61020760048036038101906102029190611f0d565b6106e5565b005b610223600480360381019061021e9190611f4e565b610707565b6040516102309190612278565b60405180910390f35b610253600480360381019061024e9190611cc0565b6107b9565b60405161026091906124fc565b60405180910390f35b610271610871565b005b61027b610885565b6040516102889190612278565b60405180910390f35b6102996108af565b6040516102a691906122fa565b60405180910390f35b6102c960048036038101906102c49190611def565b610941565b005b6102e560048036038101906102e09190611d74565b610957565b005b61030160048036038101906102fc9190611f4e565b6109b9565b60405161030e91906122fa565b60405180910390f35b610331600480360381019061032c9190611ce9565b610b2c565b60405161033e91906122df565b60405180910390f35b610361600480360381019061035c9190611e2b565b610bc0565b60405161036e91906124fc565b60405180910390f35b610391600480360381019061038c9190611cc0565b610c00565b005b60007f80ac58cd000000000000000000000000000000000000000000000000000000007bffffffffffffffffffffffffffffffffffffffffffffffffffffffff1916827bffffffffffffffffffffffffffffffffffffffffffffffffffffffff1916148061045e57507f5b5e139f000000000000000000000000000000000000000000000000000000007bffffffffffffffffffffffffffffffffffffffffffffffffffffffff1916827bffffffffffffffffffffffffffffffffffffffffffffffffffffffff1916145b8061046e575061046d82610c84565b5b9050919050565b60606000805461048490612752565b80601f01602080910402602001604051908101604052809291908181526020018280546104b090612752565b80156104fd5780601f106104d2576101008083540402835291602001916104fd565b820191906000526020600020905b8154815290600101906020018083116104e057829003601f168201915b5050505050905090565b600061051282610cee565b6004600083815260200190815260200160002060009054906101000a900473ffffffffffffffffffffffffffffffffffffffff169050919050565b600061055882610707565b90508073ffffffffffffffffffffffffffffffffffffffff168373ffffffffffffffffffffffffffffffffffffffff1614156105c9576040517f08c379a00000000000000000000000000000000000000000000000000000000081526004016105c0906124bc565b60405180910390fd5b8073ffffffffffffffffffffffffffffffffffffffff166105e8610d39565b73ffffffffffffffffffffffffffffffffffffffff161480610617575061061681610611610d39565b610b2c565b5b610656576040517f08c379a000000000000000000000000000000000000000000000000000000000815260040161064d906123fc565b60405180910390fd5b6106608383610d41565b505050565b610676610670610d39565b82610dfa565b6106b5576040517f08c379a00000000000000000000000000000000000000000000000000000000081526004016106ac906124dc565b60405180910390fd5b6106c0838383610e8f565b505050565b6106e083838360405180602001604052806000815250610957565b505050565b6106ed6110f6565b8060099080519060200190610703929190611ae4565b5050565b6000806002600084815260200190815260200160002060009054906101000a900473ffffffffffffffffffffffffffffffffffffffff169050600073ffffffffffffffffffffffffffffffffffffffff168173ffffffffffffffffffffffffffffffffffffffff1614156107b0576040517f08c379a00000000000000000000000000000000000000000000000000000000081526004016107a79061249c565b60405180910390fd5b80915050919050565b60008073ffffffffffffffffffffffffffffffffffffffff168273ffffffffffffffffffffffffffffffffffffffff16141561082a576040517f08c379a0000000000000000000000000000000000000000000000000000000008152600401610821906123dc565b60405180910390fd5b600360008373ffffffffffffffffffffffffffffffffffffffff1673ffffffffffffffffffffffffffffffffffffffff168152602001908152602001600020549050919050565b6108796110f6565b6108836000611174565b565b6000600660009054906101000a900473ffffffffffffffffffffffffffffffffffffffff16905090565b6060600180546108be90612752565b80601f01602080910402602001604051908101604052809291908181526020018280546108ea90612752565b80156109375780601f1061090c57610100808354040283529160200191610937565b820191906000526020600020905b81548152906001019060200180831161091a57829003601f168201915b5050505050905090565b61095361094c610d39565b838361123a565b5050565b610968610962610d39565b83610dfa565b6109a7576040517f08c379a000000000000000000000000000000000000000000000000000000000815260040161099e906124dc565b60405180910390fd5b6109b3848484846113a7565b50505050565b60606109c482611403565b610a03576040517f08c379a00000000000000000000000000000000000000000000000000000000081526004016109fa9061247c565b60405180910390fd5b6000600860008481526020019081526020016000208054610a2390612752565b80601f0160208091040260200160405190810160405280929190818152602001828054610a4f90612752565b8015610a9c5780601f10610a7157610100808354040283529160200191610a9c565b820191906000526020600020905b815481529060010190602001808311610a7f57829003601f168201915b505050505090506000610aad61146f565b9050600081511415610ac3578192505050610b27565b600082511115610af8578082604051602001610ae0929190612254565b60405160208183030381529060405292505050610b27565b80610b0285611501565b604051602001610b13929190612254565b604051602081830303815290604052925050505b919050565b6000600560008473ffffffffffffffffffffffffffffffffffffffff1673ffffffffffffffffffffffffffffffffffffffff16815260200190815260200160002060008373ffffffffffffffffffffffffffffffffffffffff1673ffffffffffffffffffffffffffffffffffffffff16815260200190815260200160002060009054906101000a900460ff16905092915050565b6000610bca6110f6565b610bd460076116ae565b6000610be060076116c4565b9050610bec84826116d2565b610bf681846118ac565b8091505092915050565b610c086110f6565b600073ffffffffffffffffffffffffffffffffffffffff168173ffffffffffffffffffffffffffffffffffffffff161415610c78576040517f08c379a0000000000000000000000000000000000000000000000000000000008152600401610c6f9061233c565b60405180910390fd5b610c8181611174565b50565b60007f01ffc9a7000000000000000000000000000000000000000000000000000000007bffffffffffffffffffffffffffffffffffffffffffffffffffffffff1916827bffffffffffffffffffffffffffffffffffffffffffffffffffffffff1916149050919050565b610cf781611403565b610d36576040517f08c379a0000000000000000000000000000000000000000000000000000000008152600401610d2d9061249c565b60405180910390fd5b50565b600033905090565b816004600083815260200190815260200160002060006101000a81548173ffffffffffffffffffffffffffffffffffffffff021916908373ffffffffffffffffffffffffffffffffffffffff160217905550808273ffffffffffffffffffffffffffffffffffffffff16610db483610707565b73ffffffffffffffffffffffffffffffffffffffff167f8c5be1e5ebec7d5bd14f71427d1e84f3dd0314c0f7b2291e5b200ac8c7c3b92560405160405180910390a45050565b600080610e0683610707565b90508073ffffffffffffffffffffffffffffffffffffffff168473ffffffffffffffffffffffffffffffffffffffff161480610e485750610e478185610b2c565b5b80610e8657508373ffffffffffffffffffffffffffffffffffffffff16610e6e84610507565b73ffffffffffffffffffffffffffffffffffffffff16145b91505092915050565b8273ffffffffffffffffffffffffffffffffffffffff16610eaf82610707565b73ffffffffffffffffffffffffffffffffffffffff1614610f05576040517f08c379a0000000000000000000000000000000000000000000000000000000008152600401610efc9061235c565b60405180910390fd5b600073ffffffffffffffffffffffffffffffffffffffff168273ffffffffffffffffffffffffffffffffffffffff161415610f75576040517f08c379a0000000000000000000000000000000000000000000000000000000008152600401610f6c9061239c565b60405180910390fd5b610f80838383611920565b610f8b600082610d41565b6001600360008573ffffffffffffffffffffffffffffffffffffffff1673ffffffffffffffffffffffffffffffffffffffff1681526020019081526020016000206000828254610fdb9190612668565b925050819055506001600360008473ffffffffffffffffffffffffffffffffffffffff1673ffffffffffffffffffffffffffffffffffffffff168152602001908152602001600020600082825461103291906125e1565b92505081905550816002600083815260200190815260200160002060006101000a81548173ffffffffffffffffffffffffffffffffffffffff021916908373ffffffffffffffffffffffffffffffffffffffff160217905550808273ffffffffffffffffffffffffffffffffffffffff168473ffffffffffffffffffffffffffffffffffffffff167fddf252ad1be2c89b69c2b068fc378daa952ba7f163c4a11628f55a4df523b3ef60405160405180910390a46110f1838383611925565b505050565b6110fe610d39565b73ffffffffffffffffffffffffffffffffffffffff1661111c610885565b73ffffffffffffffffffffffffffffffffffffffff1614611172576040517f08c379a00000000000000000000000000000000000000000000000000000000081526004016111699061245c565b60405180910390fd5b565b6000600660009054906101000a900473ffffffffffffffffffffffffffffffffffffffff16905081600660006101000a81548173ffffffffffffffffffffffffffffffffffffffff021916908373ffffffffffffffffffffffffffffffffffffffff1602179055508173ffffffffffffffffffffffffffffffffffffffff168173ffffffffffffffffffffffffffffffffffffffff167f8be0079c531659141344cd1fd0a4f28419497f9722a3daafe3b4186f6b6457e060405160405180910390a35050565b8173ffffffffffffffffffffffffffffffffffffffff168373ffffffffffffffffffffffffffffffffffffffff1614156112a9576040517f08c379a00000000000000000000000000000000000000000000000000000000081526004016112a0906123bc565b60405180910390fd5b80600560008573ffffffffffffffffffffffffffffffffffffffff1673ffffffffffffffffffffffffffffffffffffffff16815260200190815260200160002060008473ffffffffffffffffffffffffffffffffffffffff1673ffffffffffffffffffffffffffffffffffffffff16815260200190815260200160002060006101000a81548160ff0219169083151502179055508173ffffffffffffffffffffffffffffffffffffffff168373ffffffffffffffffffffffffffffffffffffffff167f17307eab39ab6107e8899845ad3d59bd9653f200f220920489ca2b5937696c318360405161139a91906122df565b60405180910390a3505050565b6113b2848484610e8f565b6113be8484848461192a565b6113fd576040517f08c379a00000000000000000000000000000000000000000000000000000000081526004016113f49061231c565b60405180910390fd5b50505050565b60008073ffffffffffffffffffffffffffffffffffffffff166002600084815260200190815260200160002060009054906101000a900473ffffffffffffffffffffffffffffffffffffffff1673ffffffffffffffffffffffffffffffffffffffff1614159050919050565b60606009805461147e90612752565b80601f01602080910402602001604051908101604052809291908181526020018280546114aa90612752565b80156114f75780601f106114cc576101008083540402835291602001916114f7565b820191906000526020600020905b8154815290600101906020018083116114da57829003601f168201915b5050505050905090565b60606000821415611549576040518060400160405280600181526020017f300000000000000000000000000000000000000000000000000000000000000081525090506116a9565b600082905060005b6000821461157b578080611564906127b5565b915050600a826115749190612637565b9150611551565b60008167ffffffffffffffff8111156115bd577f4e487b7100000000000000000000000000000000000000000000000000000000600052604160045260246000fd5b6040519080825280601f01601f1916602001820160405280156115ef5781602001600182028036833780820191505090505b5090505b600085146116a2576001826116089190612668565b9150600a8561161791906127fe565b603061162391906125e1565b60f81b81838151811061165f577f4e487b7100000000000000000000000000000000000000000000000000000000600052603260045260246000fd5b60200101907effffffffffffffffffffffffffffffffffffffffffffffffffffffffffffff1916908160001a905350600a8561169b9190612637565b94506115f3565b8093505050505b919050565b6001816000016000828254019250508190555050565b600081600001549050919050565b600073ffffffffffffffffffffffffffffffffffffffff168273ffffffffffffffffffffffffffffffffffffffff161415611742576040517f08c379a00000000000000000000000000000000000000000000000000000000081526004016117399061241c565b60405180910390fd5b61174b81611403565b1561178b576040517f08c379a00000000000000000000000000000000000000000000000000000000081526004016117829061237c565b60405180910390fd5b61179760008383611920565b6001600360008473ffffffffffffffffffffffffffffffffffffffff1673ffffffffffffffffffffffffffffffffffffffff16815260200190815260200160002060008282546117e791906125e1565b92505081905550816002600083815260200190815260200160002060006101000a81548173ffffffffffffffffffffffffffffffffffffffff021916908373ffffffffffffffffffffffffffffffffffffffff160217905550808273ffffffffffffffffffffffffffffffffffffffff16600073ffffffffffffffffffffffffffffffffffffffff167fddf252ad1be2c89b69c2b068fc378daa952ba7f163c4a11628f55a4df523b3ef60405160405180910390a46118a860008383611925565b5050565b6118b582611403565b6118f4576040517f08c379a00000000000000000000000000000000000000000000000000000000081526004016118eb9061243c565b60405180910390fd5b8060086000848152602001908152602001600020908051906020019061191b929190611ae4565b505050565b505050565b505050565b600061194b8473ffffffffffffffffffffffffffffffffffffffff16611ac1565b15611ab4578373ffffffffffffffffffffffffffffffffffffffff1663150b7a02611974610d39565b8786866040518563ffffffff1660e01b81526004016119969493929190612293565b602060405180830381600087803b1580156119b057600080fd5b505af19250505080156119e157506040513d601f19601f820116820180604052508101906119de9190611ee4565b60015b611a64573d8060008114611a11576040519150601f19603f3d011682016040523d82523d6000602084013e611a16565b606091505b50600081511415611a5c576040517f08c379a0000000000000000000000000000000000000000000000000000000008152600401611a539061231c565b60405180910390fd5b805181602001fd5b63150b7a0260e01b7bffffffffffffffffffffffffffffffffffffffffffffffffffffffff1916817bffffffffffffffffffffffffffffffffffffffffffffffffffffffff191614915050611ab9565b600190505b949350505050565b6000808273ffffffffffffffffffffffffffffffffffffffff163b119050919050565b828054611af090612752565b90600052602060002090601f016020900481019282611b125760008555611b59565b82601f10611b2b57805160ff1916838001178555611b59565b82800160010185558215611b59579182015b82811115611b58578251825591602001919060010190611b3d565b5b509050611b669190611b6a565b5090565b5b80821115611b83576000816000905550600101611b6b565b5090565b6000611b9a611b958461253c565b612517565b905082815260208101848484011115611bb257600080fd5b611bbd848285612710565b509392505050565b6000611bd8611bd38461256d565b612517565b905082815260208101848484011115611bf057600080fd5b611bfb848285612710565b509392505050565b600081359050611c1281612cdf565b92915050565b600081359050611c2781612cf6565b92915050565b600081359050611c3c81612d0d565b92915050565b600081519050611c5181612d0d565b92915050565b600082601f830112611c6857600080fd5b8135611c78848260208601611b87565b91505092915050565b600082601f830112611c9257600080fd5b8135611ca2848260208601611bc5565b91505092915050565b600081359050611cba81612d24565b92915050565b600060208284031215611cd257600080fd5b6000611ce084828501611c03565b91505092915050565b60008060408385031215611cfc57600080fd5b6000611d0a85828601611c03565b9250506020611d1b85828601611c03565b9150509250929050565b600080600060608486031215611d3a57600080fd5b6000611d4886828701611c03565b9350506020611d5986828701611c03565b9250506040611d6a86828701611cab565b9150509250925092565b60008060008060808587031215611d8a57600080fd5b6000611d9887828801611c03565b9450506020611da987828801611c03565b9350506040611dba87828801611cab565b925050606085013567ffffffffffffffff811115611dd757600080fd5b611de387828801611c57565b91505092959194509250565b60008060408385031215611e0257600080fd5b6000611e1085828601611c03565b9250506020611e2185828601611c18565b9150509250929050565b60008060408385031215611e3e57600080fd5b6000611e4c85828601611c03565b925050602083013567ffffffffffffffff811115611e6957600080fd5b611e7585828601611c81565b9150509250929050565b60008060408385031215611e9257600080fd5b6000611ea085828601611c03565b9250506020611eb185828601611cab565b9150509250929050565b600060208284031215611ecd57600080fd5b6000611edb84828501611c2d565b91505092915050565b600060208284031215611ef657600080fd5b6000611f0484828501611c42565b91505092915050565b600060208284031215611f1f57600080fd5b600082013567ffffffffffffffff811115611f3957600080fd5b611f4584828501611c81565b91505092915050565b600060208284031215611f6057600080fd5b6000611f6e84828501611cab565b91505092915050565b611f808161269c565b82525050565b611f8f816126ae565b82525050565b6000611fa08261259e565b611faa81856125b4565b9350611fba81856020860161271f565b611fc3816128eb565b840191505092915050565b6000611fd9826125a9565b611fe381856125c5565b9350611ff381856020860161271f565b611ffc816128eb565b840191505092915050565b6000612012826125a9565b61201c81856125d6565b935061202c81856020860161271f565b80840191505092915050565b60006120456032836125c5565b9150612050826128fc565b604082019050919050565b60006120686026836125c5565b91506120738261294b565b604082019050919050565b600061208b6025836125c5565b91506120968261299a565b604082019050919050565b60006120ae601c836125c5565b91506120b9826129e9565b602082019050919050565b60006120d16024836125c5565b91506120dc82612a12565b604082019050919050565b60006120f46019836125c5565b91506120ff82612a61565b602082019050919050565b60006121176029836125c5565b915061212282612a8a565b604082019050919050565b600061213a603e836125c5565b915061214582612ad9565b604082019050919050565b600061215d6020836125c5565b915061216882612b28565b602082019050919050565b6000612180602c836125c5565b915061218b82612b51565b604082019050919050565b60006121a36020836125c5565b91506121ae82612ba0565b602082019050919050565b60006121c6602f836125c5565b91506121d182612bc9565b604082019050919050565b60006121e96018836125c5565b91506121f482612c18565b602082019050919050565b600061220c6021836125c5565b915061221782612c41565b604082019050919050565b600061222f602e836125c5565b915061223a82612c90565b604082019050919050565b61224e81612706565b82525050565b60006122608285612007565b915061226c8284612007565b91508190509392505050565b600060208201905061228d6000830184611f77565b92915050565b60006080820190506122a86000830187611f77565b6122b56020830186611f77565b6122c26040830185612245565b81810360608301526122d48184611f95565b905095945050505050565b60006020820190506122f46000830184611f86565b92915050565b600060208201905081810360008301526123148184611fce565b905092915050565b6000602082019050818103600083015261233581612038565b9050919050565b600060208201905081810360008301526123558161205b565b9050919050565b600060208201905081810360008301526123758161207e565b9050919050565b60006020820190508181036000830152612395816120a1565b9050919050565b600060208201905081810360008301526123b5816120c4565b9050919050565b600060208201905081810360008301526123d5816120e7565b9050919050565b600060208201905081810360008301526123f58161210a565b9050919050565b600060208201905081810360008301526124158161212d565b9050919050565b6000602082019050818103600083015261243581612150565b9050919050565b6000602082019050818103600083015261245581612173565b9050919050565b6000602082019050818103600083015261247581612196565b9050919050565b60006020820190508181036000830152612495816121b9565b9050919050565b600060208201905081810360008301526124b5816121dc565b9050919050565b600060208201905081810360008301526124d5816121ff565b9050919050565b600060208201905081810360008301526124f581612222565b9050919050565b60006020820190506125116000830184612245565b92915050565b6000612521612532565b905061252d8282612784565b919050565b6000604051905090565b600067ffffffffffffffff821115612557576125566128bc565b5b612560826128eb565b9050602081019050919050565b600067ffffffffffffffff821115612588576125876128bc565b5b612591826128eb565b9050602081019050919050565b600081519050919050565b600081519050919050565b600082825260208201905092915050565b600082825260208201905092915050565b600081905092915050565b60006125ec82612706565b91506125f783612706565b9250827fffffffffffffffffffffffffffffffffffffffffffffffffffffffffffffffff0382111561262c5761262b61282f565b5b828201905092915050565b600061264282612706565b915061264d83612706565b92508261265d5761265c61285e565b5b828204905092915050565b600061267382612706565b915061267e83612706565b9250828210156126915761269061282f565b5b828203905092915050565b60006126a7826126e6565b9050919050565b60008115159050919050565b60007fffffffff0000000000000000000000000000000000000000000000000000000082169050919050565b600073ffffffffffffffffffffffffffffffffffffffff82169050919050565b6000819050919050565b82818337600083830152505050565b60005b8381101561273d578082015181840152602081019050612722565b8381111561274c576000848401525b50505050565b6000600282049050600182168061276a57607f821691505b6020821081141561277e5761277d61288d565b5b50919050565b61278d826128eb565b810181811067ffffffffffffffff821117156127ac576127ab6128bc565b5b80604052505050565b60006127c082612706565b91507fffffffffffffffffffffffffffffffffffffffffffffffffffffffffffffffff8214156127f3576127f261282f565b5b600182019050919050565b600061280982612706565b915061281483612706565b9250826128245761282361285e565b5b828206905092915050565b7f4e487b7100000000000000000000000000000000000000000000000000000000600052601160045260246000fd5b7f4e487b7100000000000000000000000000000000000000000000000000000000600052601260045260246000fd5b7f4e487b7100000000000000000000000000000000000000000000000000000000600052602260045260246000fd5b7f4e487b7100000000000000000000000000000000000000000000000000000000600052604160045260246000fd5b6000601f19601f8301169050919050565b7f4552433732313a207472616e7366657220746f206e6f6e20455243373231526560008201527f63656976657220696d706c656d656e7465720000000000000000000000000000602082015250565b7f4f776e61626c653a206e6577206f776e657220697320746865207a65726f206160008201527f6464726573730000000000000000000000000000000000000000000000000000602082015250565b7f4552433732313a207472616e736665722066726f6d20696e636f72726563742060008201527f6f776e6572000000000000000000000000000000000000000000000000000000602082015250565b7f4552433732313a20746f6b656e20616c7265616479206d696e74656400000000600082015250565b7f4552433732313a207472616e7366657220746f20746865207a65726f2061646460008201527f7265737300000000000000000000000000000000000000000000000000000000602082015250565b7f4552433732313a20617070726f766520746f2063616c6c657200000000000000600082015250565b7f4552433732313a2061646472657373207a65726f206973206e6f74206120766160008201527f6c6964206f776e65720000000000000000000000000000000000000000000000602082015250565b7f4552433732313a20617070726f76652063616c6c6572206973206e6f7420746f60008201527f6b656e206f776e6572206e6f7220617070726f76656420666f7220616c6c0000602082015250565b7f4552433732313a206d696e7420746f20746865207a65726f2061646472657373600082015250565b7f4552433732314d657461646174613a2055524920736574206f66206e6f6e657860008201527f697374656e7420746f6b656e0000000000000000000000000000000000000000602082015250565b7f4f776e61626c653a2063616c6c6572206973206e6f7420746865206f776e6572600082015250565b7f4552433732314d657461646174613a2055524920717565727920666f72206e6f60008201527f6e6578697374656e7420746f6b656e0000000000000000000000000000000000602082015250565b7f4552433732313a20696e76616c696420746f6b656e2049440000000000000000600082015250565b7f4552433732313a20617070726f76616c20746f2063757272656e74206f776e6560008201527f7200000000000000000000000000000000000000000000000000000000000000602082015250565b7f4552433732313a2063616c6c6572206973206e6f7420746f6b656e206f776e6560008201527f72206e6f7220617070726f766564000000000000000000000000000000000000602082015250565b612ce88161269c565b8114612cf357600080fd5b50565b612cff816126ae565b8114612d0a57600080fd5b50565b612d16816126ba565b8114612d2157600080fd5b50565b612d2d81612706565b8114612d3857600080fd5b5056fea2646970667358221220db6eac4a89d6a7a64222dd6fae1430ba1bd3a0522d57ee1fc4c514550f5b236664736f6c63430008040033",
  "linkReferences": {},
  "deployedLinkReferences": {}
}